:020000040800F2
:1000000000000220AD030008DB010008C701000862
:10001000C3010008AF0100089B01000800000000B8
:100020000000000000000000000000009701000830
:1000300093010008000000008F0100088D010008F6
:100040008901000889010008890100088901000868
:100050008901000889010008290A000889010008AF
:100060008901000889010008890100088901000848
:100070008901000889010008890100088901000838
:100080008901000889010008890100088901000828
:100090008901000889010008890100088901000818
:1000A0008901000889010008890100088901000808
:1000B00089010008890100088901000889010008F8
:1000C00089010008890100088901000889010008E8
:1000D00089010008890100088901000889010008D8
:1000E00089010008890100088901000889010008C8
:1000F00089010008890100088901000889010008B8
:1001000089010008890100088901000889010008A7
:100110008901000889010008890100088901000897
:100120008901000889010008890100088901000887
:100130008901000889010008890100088901000877
:100140008901000889010008890100088901000867
:100150008901000889010008890100088901000857
:100160008901000889010008890100088901000847
:1001700089010008890100088901000800000000C9
:10018000890100088901000800BEFEE7704700BE33
:10019000FEE700BEFEE700BEFEE71EF0040F0CBF48
:1001A000EFF30880EFF309807146824A10471EF092
:1001B000040F0CBFEFF30880EFF3098071467E4A0D
:1001C000104700BEFEE71EF0040F0CBFEFF30880DF
:1001D000EFF309807146794A104700BEFEE780B50B
:1001E00082B004468846084B5E6B9F6B9D6A074849
:1001F00000F0A6FCCDF800803B463246294620465A
:1002000000F0B6FC00BEFEE700ED00E0242400088C
:1002100080B582B004468846084B5E6B9F6B9D6A32
:10022000074800F08DFCCDF800803B463246294659
:10023000204600F09DFC00BEFEE700BF00ED00E0A0
:10024000342400082DE9F04182B004468846134B5F
:100250005E6B9F6B9D6A1B6B13F0020F03D00F4BFD
:10026000DB6A002B0CDB0E4800F06AFCCDF8008046
:100270003B4632462946204600F07AFC00BEFEE7A7
:100280004BF6AB6100F0DCFB0028ECD0034B4FF0E9
:100290000042DA6202B0BDE8F08100BF00ED00E08C
:1002A0004024000800B583B000F0F4FA304B314A26
:1002B0001360314A1360314900E02146304B9942C6
:1002C0000BD20A684B6801F10C0488689842F4D993
:1002D0001168196004330432F8E7264B1A68294B79
:1002E0009A4200D0FEE7244B1A68274B9A42F9D174
:1002F0001F4B264A1360264A1360264B05E0002058
:10030000106004329342FAD80B46234A934204D237
:10031000194651F8082B5B68F4E71C4B1B6813B9AE
:100320001B4B1B6803B1FEE700F0B0FA694601A859
:1003300000F098FC194C1A4BE41AA4100025AC42AA
:100340000ADC184C184BE41AA4100025AC4209DC56
:100350000099019800F004FA114B53F825309847A2
:100360000135ECE7104B53F8253098470135EDE7A0
:10037000BABADECA00000020D8010020C00300087D
:10038000D80300087856341232547698DC010020E5
:10039000BC030020D8030008E8030008E8030008B5
:1003A000E8030008E8030008E803000808B5FFF7C1
:1003B00079FF0000DF010008110200084502000873
:1003C000F025000800000020DC010020F0250008D6
:1003D0000000001000000010DC010020C00300201D
:0803E0000000001000000010F5
:1003F00010B5474B1B78052B54D8DFE803F00319E1
:100400002E43586D434C206800F096FF3EA3D3E97D
:10041000002300F033FE01F08FF820604FF07E5192
:1004200001F09AFB00283DD0394B01221A7039E0C7
:10043000384C606800F080FF33A3D3E9002300F05C
:100440001DFE01F079F860604FF07E5101F084FBF1
:1004500040B32F4B02221A7024E02E4CA06800F00B
:100460006BFF29A3D3E9002300F008FE01F064F834
:10047000A0604FF07E5101F06FFB98B1244B032236
:100480001A700FE0234C206800F056FF1EA3D3E93A
:10049000002300F0F1FD01F04FF82060002101F091
:1004A00051FB00B910BD1A4B04221A70FAE7194C1F
:1004B000606800F041FF14A3D3E9002300F0DCFDE5
:1004C00001F03AF86060002101F03CFB0028E9D01F
:1004D0000F4B05221A70E5E70E4CA06800F02CFFC8
:1004E00009A3D3E9002300F0C7FD01F025F8A060BF
:1004F000002101F027FB0028D4D0054B00221A7000
:10050000D0E700BFAFF300809A9999999999A93FD4
:100510006402002058020020494B1A6802F40022AD
:100520001A601A6842F001021A60454B1B6813F00A
:10053000020FFAD0424A936823F003039360404BC2
:100540009B6813F00C0FFAD13D4A136843F48033D3
:1005500013603B4B1B6813F4003FFAD0384B9A688A
:1005600022F4F81242F400229A609A6822F460425F
:100570009A609A6822F4E0529A609A6822F0F00237
:100580009A609A6822F0030242F001029A602C4BB2
:100590009B6803F00C03042BF9D1294B1A6802F075
:1005A00001021A605A6842F480025A605A6822F0C6
:1005B0003F0242F008025A605A6822F4FF4222F0D9
:1005C000400242F4A8425A605A6822F440325A600B
:1005D0005A6822F0706242F0E0625A601A6842F093
:1005E00080721A60164B1B6813F0007FFAD0144B10
:1005F0009A6822F4604242F400429A609A6822F4B7
:10060000E05242F4A0529A609A6822F0F0029A6096
:100610000C490A6822F00F0242F005020A600A68DB
:1006200042F4E0620A609A6822F0030242F0020299
:100630009A60034B9B6803F00C03082BF9D17047B9
:1006400000380240003C024008B5FFF765FF3F4A12
:10065000136B43F0010313633D4B9A6842F00C02A5
:100660009A609A6842F030029A609A6842F0C0023A
:100670009A601A6842F008021A601A6842F0200272
:100680001A601A6842F080021A601A6A42F0100278
:100690001A621A6A42F480721A621A6A42F480522A
:1006A0001A621A6822F001021A60DA6842F0020245
:1006B000DA60A3F544431A6842F001021A60DA686E
:1006C00042F00102DA60234BDB68C3F302231A1DF8
:1006D000062A38D9DA1E4FF0FF339340DB4303F08C
:1006E00001031B011C4A82F8063340231360174A9A
:1006F000136C43F0010313644FF080439A6822F0B7
:1007000007029A6001229A62144ADA629A6922F414
:10071000E04242F4C0429A61DA6922F0700242F08B
:100720006002DA61DA6922F4E04242F4C042DA613E
:100730001A6A42F4885242F010021A621A6842F0B1
:1007400081021A6008BD0022C5E700BF00380240E0
:100750000000024000ED00E000E100E020A1070001
:1007600008B5FFF771FF094B094A1A60094A5A6038
:10077000094A9A60094B0A4A1A600A4959609A6004
:10078000094B00221A605A609A60FEE7E8020020D6
:100790000024F448007C12480050C348F4020020B2
:1007A000000048420000C84158020020224B9B68CC
:1007B00003F00C03042B11D0082B13D0002B37D1DE
:1007C0001E4B1F4A1A601C4B9B68C3F303131D4A40
:1007D000D15C1A4A1368CB4013607047174B1A4A12
:1007E0001A60F0E7144B5A685B6803F03F0312F499
:1007F000800F13D0144AB2FBF3F20F4B5B68C3F3C4
:10080000881303FB02F30C4A5268C2F3014201321F
:100810005200B3FBF2F3094A1360D4E7084AB2FB73
:10082000F3F2054B5B68C3F3881303FB02F3EAE7BB
:10083000024B034A1A60C6E7003802400400002059
:100840000024F400F422000800127A000C4B1A680D
:1008500042F001021A60002199601A6822F0847245
:1008600022F480321A60074A5A601A6822F4802201
:100870001A60D960044B4FF000629A60704700BF65
:10088000003802401030002400ED00E008B5FFF70A
:100890008DFF08BD08B5FFF7D9FF024A024B9A60E9
:1008A00008BD00BF0000000800ED00E02DE9F043A6
:1008B00085B004460F4643560BB10E461EE0042594
:1008C00028462146ABBE0446384605B0BDE8F08355
:1008D00014F9011B04AA1A4402F8101C0133AB429C
:1008E000F6D304AA1344002203F8102C4FF0040896
:1008F000E94640464946ABBE8046761B002EE3D013
:100900003546102E28BF10250023E8E708B5FFF76D
:10091000CDFF08BD2DE9F04184B0234F0197032698
:10092000039600230293012401AD20462946ABBE65
:1009300080461E4BC3F80080019703960423029360
:1009400020462946ABBE8046194BC3F8008001976C
:1009500003960823029320462946ABBE0446154B56
:100960001C60B4F1FF3F03D1114B1A68114B1A60A0
:100970000023132B10DD104B0C4A12681A60002262
:100980005A600B4909689960DA600A490968196177
:100990005A6104B0BDE8F081074A4FF0FF3142F8D8
:1009A00033100133E5E700BF2024000808030020CE
:1009B0000C030020040300201003002010B50C4697
:1009C00001460A4B53F8240000F014FF084B53F87B
:1009D000241000F007FE00F0AFFC0022054B00F0F1
:1009E0004DFB00F0C1FA00F087FD10BDE8020020C9
:1009F000F40200200000E03F38B5FFF7F9FC094D94
:100A000000212868FFF7DAFF4FF08044A06301213E
:100A10006868FFF7D3FFE0630221A868FFF7CEFF05
:100A2000206438BD5802002008B5044A536943F0D9
:100A300001035361FFF7E0FF08BD00BF003C014028
:100A400038B583691B888B426FD1044603684568BB
:100A5000013B302B6BD8DFE803F046211C1C5E30D5
:100A6000332D19196A19191919193619246A1927F0
:100A70006A396A6A6A6A6A6A6A6A6A6A6A6A6A6A07
:100A80006A6A6A6A6A6A6A6A6A1919004FF0FF3309
:100A90000360A3690233A361012038BD0023036012
:100AA000F7E700230360F4E700232B606B60AB6083
:100AB000EB60EEE700230360EBE7AB680360E8E779
:100AC00000230360E5E700230360E2E7BFF34F8FF5
:100AD0001849CA6802F4E062174B1343CB60BFF3B6
:100AE0004F8F00BFFDE71549286800F0D5F970B9B0
:100AF0006B6813B901232360CBE7042B02D10223D7
:100B00002360C6E7082B02D103232360C1E74FF01F
:100B1000FF332360BDE72B68023B012B02D8002383
:100B20000360B6E7AB680360B3E70020B5E70020D9
:100B3000B3E700BF00ED00E00400FA052024000840
:100B40000FB400B583B004AB53F8042B019380219C
:100B5000064801F041F8002803DD01460348FFF78D
:100B6000D5FE03B05DF804EB04B0704768020020C6
:100B7000F8B504460D4617461E462748FFF7E0FF26
:100B800021682648FFF7DCFF61682548FFF7D8FF9A
:100B9000A1682448FFF7D4FFE1682348FFF7D0FF9E
:100BA00021692248FFF7CCFF61692148FFF7C8FFA0
:100BB000A1692048FFF7C4FFE1691F48FFF7C0FFA4
:100BC0001E48FFF7BDFF29461D48FFF7B9FF1D4C22
:100BD000E16A1D48FFF7B4FF216B1C48FFF7B0FF27
:100BE000E16B1B48FFF7ACFF15F0800F0AD115F43D
:100BF000004F0CD11748FFF7A3FF06991648FFF7DF
:100C00009FFFF8BD39461548FFF79AFFEFE73146D9
:100C10001348FFF795FFEDE70423000814230008AD
:100C20002423000834230008442300085423000828
:100C30006423000874230008842300089423000818
:100C4000A023000800ED00E0B0230008C023000846
:100C5000D02300080024000808240008E02300082E
:100C6000F02300082DE9F04F83B083468A462F4BCE
:100C700000934F23019315246D4620462946ABBEB1
:100C80000446002C4AD1A146284B002283F84F206D
:100C9000009E2746A04696F9005075B9002C3ED01C
:100CA000234B002243F82420CBF80040CAF8003040
:100CB000FFF730FE03B0BDE8F08FB8F1000F18D198
:100CC00000F060F8284490F90130002B0FDB092D6B
:100CD0000DD0082CE2DC222D01D0272D01D10136C8
:100CE0002F46134B43F8246001344FF001080136BE
:100CF000D1E737B1AF42FAD1002333704F46C8462F
:100D0000F5E700F03FF8284490F90130002B01DBB3
:100D1000092DECD100233370B846E8E70024034BDB
:100D200000221A70024A13600134B9E7E001002082
:100D30003002002008B503460C4A12685AB10B4A2B
:100D40001068033323F003030344094A934206D88F
:100D5000064A136008BD054A06491160EFE700F036
:100D60000BF80C2303604FF0FF30F3E70003002083
:100D700000FC0120C0030020014B1868704700BF31
:100D800008000020044B054A1B681B6A002B08BFA3
:100D90001346D3F8EC007047080000206C000020D8
:100DA00082B001B901A942B14BB113780B6012783E
:100DB000101C18BF012002B070471046FBE76FF00F
:100DC0000100F8E770B5CD1C25F0030508350C2DA2
:100DD00038BF0C25002D064601DBA94203D90C23A0
:100DE0003360002070BD00F06EF8214A146821467F
:100DF00091B9204C23681BB9304600F03DF82060C3
:100E00002946304600F038F8431C24D10C233360C7
:100E1000304600F059F8E4E70B685B1B18D40B2B45
:100E20000FD90B60CD50CC18304600F04DF804F1CE
:100E30000B00231D20F00700C31AD3D05A42E25002
:100E4000D0E78C424B6816BF636013600C46EBE73B
:100E50000C464968CCE7C41C24F00304A04205D02A
:100E6000211A304600F008F80130CFD02560DBE7CA
:100E7000B0030020B403002038B5064C002305461B
:100E800008462360FFF756FF431C02D1236803B1D5
:100E90002B6038BDB803002010F8012B11F8013B7E
:100EA000012A28BF9A42F7D0D01A704749B1FF2AC9
:100EB00085BF8A2303600A704FF0FF3098BF01207E
:100EC00070470846704770477047000038B50546C0
:100ED000002945D051F8043C0C1F002BB8BFE41882
:100EE000FFF7F1FF1F4A1368104633B963601460BF
:100EF0002846BDE83840FFF7E7BFA3420CD9216878
:100F00006218934204BF1A685B68636004BF52189A
:100F100022600460ECE713465A680AB1A242FAD98B
:100F200019685818A0420BD1206801445818824211
:100F30001960DDD1106852685A6001441960D7E722
:100F400002D90C232B60D3E7206821188A4204BF02
:100F500011685268626004BF091821605C60C7E7CD
:100F600038BD00BFB0030020C1F30A522DE9F84399
:100F7000A2F2FF36132E0B460D460446884607465E
:100F80001DDC002E3DDB384A42FA06F901EA09026F
:100F9000024319D032A3D3E9002300F06FF80022F6
:100FA000002300F09FFAD0B3002D04DA4FF4801331
:100FB00043FA06F6B04428EA090500272FE0332E4D
:100FC00006DDB6F5806F2FD019462046BDE8F883C0
:100FD000A2F213424FF0FF3929FA02F919EA000F81
:100FE000F2D01FA3D3E9002300F048F80022002329
:100FF00000F078FA98B1002D24DB27EA090745466E
:101000000DE017A3D3E9002300F038F800220023F5
:1010100000F068FA18B1002D0BDB00273D463C4676
:1010200029462046BDE8F883024600F027F804462A
:10103000CBE725F000430D4A1F43002F18BF15468C
:101040000027ECE7142E08D00123C6F1340603FA7A
:1010500006F6371928BF9844CFE705F10108CCE719
:101060009C7500883CE4377EFFFF0F000000F0BF56
:1010700081F0004102E000BF83F0004330B54FEA49
:1010800041044FEA430594EA050F08BF90EA020FB6
:101090001FBF54EA000C55EA020C7FEA645C7FEA49
:1010A000655C00F0E2804FEA5454D4EB5555B8BF6C
:1010B0006D420CDD2C4480EA020281EA030382EADD
:1010C000000083EA010180EA020281EA0303362D6F
:1010D00088BF30BD11F0004F4FEA01314FF4801C42
:1010E0004CEA113102D0404261EB410113F0004F54
:1010F0004FEA03334CEA133302D0524263EB43030B
:1011000094EA050F00F0A780A4F10104D5F1200EA8
:101110000DDB02FA0EFC22FA05F2801841F1000103
:1011200003FA0EF2801843FA05F359410EE0A5F1D7
:1011300020050EF1200E012A03FA0EFC28BF4CF008
:10114000020C43FA05F3C01851EBE37101F00045BE
:1011500007D54FF0000EDCF1000C7EEB00006EEBCB
:101160000101B1F5801F1BD3B1F5001F0CD3490855
:101170005FEA30004FEA3C0C04F101044FEA4452AC
:1011800012F5800F80F09A80BCF1004F08BF5FEA33
:10119000500C50F1000041EB045141EA050130BD13
:1011A0005FEA4C0C404141EB010111F4801FA4F1B6
:1011B0000104E9D191F0000F04BF01460020B1FA0B
:1011C00081F308BF2033A3F10B03B3F120020CDA43
:1011D0000C3208DD02F1140CC2F10C0201FA0CF021
:1011E00021FA02F10CE002F11402D8BFC2F1200C86
:1011F00001FA02F120FA0CFCDCBF41EA0C0190403C
:10120000E41AA2BF01EB0451294330BD6FEA040484
:101210001F3C1CDA0C340EDC04F11404C4F120026F
:1012200020FA04F001FA02F340EA030021FA04F381
:1012300045EA030130BDC4F10C04C4F1200220FAD8
:1012400002F001FA04F340EA0300294630BD21FA16
:1012500004F0294630BD94F0000F83F4801306BFDC
:1012600081F480110134013D4EE77FEA645C18BFD0
:101270007FEA655C29D094EA050F08BF90EA020F67
:1012800005D054EA000C04BF1946104630BD91EA5F
:10129000030F1EBF0021002030BD5FEA545C05D162
:1012A0004000494128BF41F0004130BD14F58004A1
:1012B0003CBF01F5801130BD01F0004545F0FE4115
:1012C00041F470014FF0000030BD7FEA645C1ABF4A
:1012D000194610467FEA655C1CBF0B46024650EA81
:1012E000013406BF52EA033591EA030F41F40021AD
:1012F00030BD00BF90F0000F04BF0021704730B533
:101300004FF4806404F132044FF000054FF0000107
:1013100050E700BF90F0000F04BF0021704730B5C8
:101320004FF4806404F1320410F0004548BF40429D
:101330004FF000013EE700BF42004FEAE2014FEAF2
:1013400031014FEA02701FBF12F07F4393F07F4FCD
:1013500081F06051704732F07F4208BF704793F0D0
:101360007F4F04BF41F40021704730B54FF46074E3
:1013700001F0004521F000411CE700BF50EA0102E6
:1013800008BF704730B54FF000050AE050EA01028F
:1013900008BF704730B511F0004502D5404261EBFF
:1013A00041014FF4806404F132045FEA915C3FF440
:1013B000D8AE4FF003025FEADC0C18BF03325FEADD
:1013C000DC0C18BF033202EBDC02C2F1200300FA8E
:1013D00003FC20FA02F001FA03FE40EA0E0021FAB3
:1013E00002F11444BDE600BF4FF0FF3C06E000BF31
:1013F0004FF0010C02E000BF4FF0010C4DF804CD9E
:101400004FEA410C7FEA6C5C4FEA430C18BF7FEA5D
:101410006C5C1BD001B050EA410C0CBF52EA430C8B
:1014200091EA030F02BF90EA020F0020704710F10B
:10143000000F91EA030F58BF994208BF90422CBF9A
:10144000D8176FEAE37040F0010070474FEA410C93
:101450007FEA6C5C02D150EA013C07D14FEA430CB1
:101460007FEA6C5CD6D152EA033CD3D05DF8040B22
:10147000704700BF8446104662468C461946634654
:1014800000E000BF01B5FFF7B7FF002848BF10F12B
:10149000000F01BD4DF808EDFFF7F4FF0CBF012070
:1014A00000205DF808FB00BF4DF808EDFFF7EAFFEC
:1014B00034BF012000205DF808FB00BF4DF808EDA7
:1014C000FFF7E0FF94BF012000205DF808FB00BF9C
:1014D0004DF808EDFFF7CEFF94BF012000205DF826
:1014E00008FB00BF4DF808EDFFF7C4FF34BF012033
:1014F00000205DF808FB00BF4A0011D212F500126F
:1015000011D20DD56FF47873B3EB62520ED44FEA5B
:10151000C12343F0004343EA505323FA02F07047DB
:101520004FF00000704750EA013002D14FF0FF3019
:1015300070474FF0000070474FEA4102B2F1E043BC
:1015400024BFB3F5001CDCF1FE5C0DD901F0004CAA
:101550004FEAC0024CEA5070B2F1004F40EB8300FA
:1015600008BF20F00100704711F0804F21D113F126
:101570003872BCBF01F00040704741F480114FEA5F
:101580005252C2F11802C2F1200C10FA0CF320FAE8
:1015900002F018BF40F001004FEAC1234FEAD32305
:1015A00003FA0CFC40EA0C0023FA02F34FEA43036F
:1015B000CCE77FEA625307D150EA01331EBF4FF0F8
:1015C000FE4040F44000704701F0004040F0FE4013
:1015D00040F40000704700BF80F0004002E000BF10
:1015E00081F0004142001FBF5FEA410392EA030F0E
:1015F0007FEA226C7FEA236C6AD04FEA1262D2EB58
:101600001363C1BFD218414048404140B8BF5B425C
:10161000192B88BF704710F0004F40F4000020F0F5
:101620007F4018BF404211F0004F41F4000121F00B
:101630007F4118BF494292EA030F3FD0A2F1010255
:1016400041FA03FC10EB0C00C3F1200301FA03F193
:1016500000F0004302D5494260EB4000B0F5000FB6
:1016600013D3B0F1807F06D340084FEA310102F175
:101670000102FE2A51D2B1F1004F40EBC25008BF27
:1016800020F0010040EA03007047490040EB0000F1
:1016900010F4000FA2F10102EDD1B0FA80FCACF120
:1016A000080CB2EB0C0200FA0CF0AABF00EBC2501F
:1016B00052421843BCBFD0401843704792F0000F0D
:1016C00081F4000106BF80F400000132013BB5E760
:1016D0004FEA41037FEA226C18BF7FEA236C21D0D6
:1016E00092EA030F04D092F0000F08BF084670473B
:1016F00090EA010F1CBF0020704712F07F4F04D109
:10170000400028BF40F00040704712F100723CBF1B
:1017100000F50000704700F0004343F0FE4040F445
:10172000000070477FEA226216BF08467FEA236303
:101730000146420206BF5FEA412390EA010F40F4EE
:10174000800070474FF0000304E000BF10F000433A
:1017500048BF40425FEA000C08BF704743F0964321
:1017600001464FF000001CE050EA010208BF70473C
:101770004FF000030AE000BF50EA010208BF7047C3
:1017800011F0004302D5404261EB41015FEA010CD8
:1017900002BF84460146002043F0B64308BFA3F1D0
:1017A0008053A3F50003BCFA8CF2083AA3EBC253B2
:1017B00010DB01FA02FC634400FA02FCC2F12002D1
:1017C000BCF1004F20FA02F243EB020008BF20F008
:1017D0000100704702F1200201FA02FCC2F120026E
:1017E00050EA4C0021FA02F243EB020008BF20EA63
:1017F000DC7070474FF0FF0C1CEAD0521EBF1CEA91
:10180000D15392EA0C0F93EA0C0F6FD01A4480EA7E
:10181000010C400218BF5FEA41211ED04FF0006367
:1018200043EA501043EA5111A0FB01310CF0004093
:10183000B1F5000F3EBF490041EAD3715B0040EAB9
:10184000010062F17F02FD2A1DD8B3F1004F40EB89
:10185000C25008BF20F00100704790F0000F0CF05C
:10186000004C08BF49024CEA502040EA51207F3A20
:10187000C2BFD2F1FF0340EAC250704740F40000FB
:101880004FF00003013A5DDC12F1190FDCBF00F0EC
:1018900000407047C2F10002410021FA02F1C2F19A
:1018A000200200FA02FC5FEA310040F1000053EA36
:1018B0004C0308BF20EADC70704792F0000F00F084
:1018C000004C02BF400010F4000F013AF9D040EA8A
:1018D0000C0093F0000F01F0004C02BF490011F41E
:1018E000000F013BF9D041EA0C018FE70CEAD1531C
:1018F00092EA0C0F18BF93EA0C0F0AD030F0004C9C
:1019000018BF31F0004CD8D180EA010000F000404F
:10191000704790F0000F17BF90F0004F084691F00D
:10192000000F91F0004F14D092EA0C0F01D1420247
:101930000FD193EA0C0F03D14B0218BF084608D110
:1019400080EA010000F0004040F0FE4040F400005A
:10195000704740F0FE4040F4400070474FF0FF0CED
:101960001CEAD0521EBF1CEAD15392EA0C0F93EA34
:101970000C0F69D0A2EB030280EA010C49024FEA86
:10198000402037D04FF0805343EA111143EA10133F
:101990000CF000408B4238BF5B0042F17D024FF4F7
:1019A000000C8B4224BF5B1A40EA0C00B3EB510FD2
:1019B00024BFA3EB510340EA5C00B3EB910F24BFBB
:1019C000A3EB910340EA9C00B3EBD10F24BFA3EB40
:1019D000D10340EADC001B0118BF5FEA1C1CE0D108
:1019E000FD2A3FF650AF8B4240EBC25008BF20F0BB
:1019F000010070470CF0004C4CEA50207F32C2BF0F
:101A0000D2F1FF0340EAC250704740F400004FF0AB
:101A10000003013A37E792F0000F00F0004C02BFDC
:101A2000400010F4000F013AF9D040EA0C0093F0A6
:101A3000000F01F0004C02BF490011F4000F013B00
:101A4000F9D041EA0C0195E70CEAD15392EA0C0F68
:101A500008D142027FF47DAF93EA0C0F7FF470AFA0
:101A6000084676E793EA0C0F04D14B023FF44CAFE3
:101A700008466EE730F0004C18BF31F0004CCAD178
:101A800030F000427FF45CAF31F000437FF43CAFB4
:101A90005FE700BF4FF0FF3C06E000BF4FF0010CD6
:101AA00002E000BF4FF0010C4DF804CD4FEA4002B8
:101AB0004FEA41037FEA226C18BF7FEA236C11D002
:101AC00001B052EA530C18BF90EA010F58BFB2EBB5
:101AD000030088BFC81738BF6FEAE17018BF40F035
:101AE000010070477FEA226C02D15FEA402C05D1E9
:101AF0007FEA236CE4D15FEA412CE1D05DF8040B6E
:101B0000704700BF844608466146FFE70FB5FFF700
:101B1000C9FF002848BF10F1000F0FBD4DF808EDB8
:101B2000FFF7F4FF0CBF012000205DF808FB00BFA9
:101B30004DF808EDFFF7EAFF34BF012000205DF803
:101B400008FB00BF4DF808EDFFF7E0FF94BF012050
:101B500000205DF808FB00BF4DF808EDFFF7D2FF4D
:101B600094BF012000205DF808FB00BF4DF808ED90
:101B7000FFF7C8FF34BF012000205DF808FB00BF5D
:101B800030B5141E05469BB0184605DA8B232B6032
:101B90004FF0FF301BB030BD4FF40273ADF80C3086
:101BA00014BF04F1FF332346029305934FF6FF73EE
:101BB00000910491ADF80E3002461E9B69462846FE
:101BC00000F072F8431CBCBF8B232B60002CE1D0CB
:101BD000009B00221A70DDE707B5009313460A4602
:101BE000014603480068FFF7CBFF03B05DF804FB34
:101BF000080000202DE9F0478E689E4282460C4680
:101C00009046994637D88A8912F4906F31D025686A
:101C100009696F1A6569022305EB450595FBF3F524
:101C200009F101033B449D4238BF1D46530530D5A1
:101C30002946FFF7C7F8064650B90C23CAF800300A
:101C4000A38943F04003A3814FF0FF30BDE8F08744
:101C50003A46216900F0FCFAA38923F4906343F02B
:101C60008003A381266165613E44ED1B2660A5606B
:101C70004E464E4500D94E4632464146206800F059
:101C8000F2FAA3689B1BA36023681E442660002011
:101C9000DCE72A4600F000FB06460028E2D1216975
:101CA0005046FFF713F9C8E72DE9F04F9DB0804685
:101CB00003938B891D060C4616460FD50B696BB92D
:101CC0004021FFF77FF82060206128B90C23C8F875
:101CD00000304FF0FF30C7E04023636100230993D9
:101CE00020238DF8293030238DF82A304FF0010B56
:101CF00037463D4615F8013B0BB1252B3ED1B7EBDE
:101D0000060A0BD05346324621464046FFF772FF83
:101D1000013000F0A480099B534409933B78002BC9
:101D200000F09D8000234FF0FF32CDE9052304939E
:101D300007938DF853301A932F46052217F8011B8D
:101D40004F4800F035FA049BD0B9D90644BF202291
:101D50008DF853201A0744BF2B228DF853202A7880
:101D60002A2A15D0079A2F4600200A25394611F84D
:101D7000013B303B092B4DD9B8B10FE02F46B8E7F6
:101D80003F4A801A0BFA00F0184304903D46D3E70F
:101D9000039A111D12680391002A01DB079204E0E7
:101DA000524243F00203079204933B782E2B0CD14E
:101DB0007B782A2B33D1039B1A1D1B680392002BBF
:101DC000B8BF4FF0FF33023705932E4D3978032209
:101DD000284600F0EDF938B14023401B03FA00F02B
:101DE000049B034301370493397827488DF8281062
:101DF00006227E1C00F0DCF9002838D0234B13BBF0
:101E0000039B073323F0070308330393099B4B44D9
:101E100009936DE705FB023201200F46A6E7002378
:101E20000137059319460A25384610F8012B303A38
:101E3000092A03D9002BC8D00591C6E705FB01216B
:101E400001230746F0E703AB00932246104B04A999
:101E50004046AFF30080B0F1FF3F8146D6D1A38961
:101E60005B063FF536AF09981DB0BDE8F08F03ABB8
:101E700000932246064B04A9404600F081F8EAE7A9
:101E8000BB250008C1250008C5250008000000008A
:101E9000F51B00082DE9F04791461F468A680B693B
:101EA000DDF820809342B8BF1346C9F8003091F89E
:101EB000432006460C4612B10133C9F800302368AE
:101EC000990642BFD9F800300233C9F800302568BE
:101ED00015F0060507D104F1190AE368D9F80020C6
:101EE0009B1AAB4228DC94F843302268003318BFB9
:101EF000012392062DD404F1430239463046C047EF
:101F0000013020D02368E568D9F8002003F00603EB
:101F1000042B08BFAD1AA36822690CBF25EAE5753A
:101F200000259342C4BF9B1AED184FF000091A34E4
:101F30004D451AD1002008E001235246394630466B
:101F4000C047013003D14FF0FF30BDE8F0870135C5
:101F5000C3E7E1185A1C302081F84300224494F86A
:101F6000451082F843100233C5E701232246394663
:101F70003046C0470130E6D009F10109D8E700003A
:101F80002DE9F04301F1430C0C46097E85B06E2922
:101F90001746064698460C9A00F0B38022D863296B
:101FA00036D00AD8002900F0B980582900F0838083
:101FB00004F1420584F8421032E0642901D0692915
:101FC000F6D120681368050603F104012AD51B68C1
:101FD0001160002B03DA2D225B4284F843206F4806
:101FE0000A2239E0732900F09D8008D86F2920D09B
:101FF0007029DDD1236843F02003236003E07529B5
:1020000017D07829D4D1782384F84530644855E036
:102010001368191D1B68116004F1420584F84230F1
:1020200001238CE01B68116010F0400F18BF1BB239
:10203000CFE713682568181D1060280601D51B68B6
:1020400002E06806FBD51B8854486F2914BF0A229A
:102050000822002184F843106568A560002DC0F2B5
:102060009580216821F004012160002B3DD1002DD5
:1020700040F08E806546082A0BD12368DB0708D51F
:10208000236962689A42DEBF302305F8013C05F1FE
:10209000FF35ACEB05032361CDF800803B4603AA76
:1020A00021463046FFF7F6FE01304DD14FF0FF30AC
:1020B00005B0BDE8F083394884F8451013682168FD
:1020C0001D1D1B6815600A060BD5CA0744BF41F0E9
:1020D000200121601BB9226822F020022260102218
:1020E000B7E74D0648BF9BB2EFE76546B3FBF2F199
:1020F00002FB1133C35C05F8013D0B460029F5D105
:10210000B9E7136825686169181D106028061B6807
:1021100001D5196002E06A06FBD51980002323610E
:102120006546B9E71368191D11601D6862680021D2
:10213000284600F03DF808B1401B606063682361E9
:10214000002384F84330A7E723692A4639463046FE
:10215000C0470130AAD023689B0713D4E068039BD3
:102160009842B8BF1846A3E701234A46394630468D
:10217000C04701309AD00135E368039A9B1AAB42FD
:10218000F2DCEBE7002504F11909F5E7002BACD1EF
:10219000037884F8423004F142056CE7CC2500084E
:1021A000DD25000800000000000000000000000025
:1021B00001F0FF01102A2BDB10F0070F08D010F8F8
:1021C000013B013A8B422DD010F0070F42B3F6D1FC
:1021D000F0B441EA012141EA014122F007047FF015
:1021E00000070023F0E80256083C85EA010586EA6C
:1021F000010685FA47F5A3FA87F586FA47F6A5FAA8
:1022000087F68EB9EED1F0BC01F0FF0102F00702B3
:1022100032B110F8013B013A83EA010313B1F8D15E
:102220000020704701387047002D06BF354603383F
:10223000073815F0010F07D1013015F4807F02BF78
:10224000013015F4C03F0130F0BC0138704700BFC9
:1022500010B5431E0A44914200D110BD11F8014B44
:1022600003F8014FF7E7884210B501EB020307D8E6
:10227000421E99420AD011F8014B02F8014FF8E7CB
:102280008342F5D98118D21AD34200D110BD13F878
:10229000014D01F8014DF7E7F8B5074614460E4623
:1022A00021B91146BDE8F840FEF78CBD22B9FEF712
:1022B0000DFE25462846F8BD00F014F8A0420FD2C6
:1022C00021463846FEF77EFD05460028F2D031460D
:1022D0002246FFF7BDFF31463846FEF7F7FDE9E736
:1022E0003546E7E751F8043C181F002BBCBF0B58DC
:1022F000C018704700000000000000000102030445
:1023000006070809537461636B206672616D653A54
:102310000A000000205230203D2020253038580A85
:1023200000000000205231203D2020253038580A7E
:1023300000000000205232203D2020253038580A6D
:1023400000000000205233203D2020253038580A5C
:102350000000000020523132203D20253038580A3C
:1023600000000000204C52203D2020253038580A23
:1023700000000000205043203D2020253038580A1E
:102380000000000020505352203D20253038580ACC
:10239000000000004653522F4641523A0A00000006
:1023A0002043465352203D2020253038580A000053
:1023B0002048465352203D2020253038580A00003E
:1023C0002044465352203D2020253038580A000032
:1023D0002041465352203D2020253038580A000025
:1023E000204D4D464152203D20253038580A0000EE
:1023F0002042464152203D2020253038580A000016
:102400004D6973630A000000204C522F4558435F0A
:1024100052455455524E3D20253038580A00000090
:102420003A7474005B55736167654661756C745DE1
:102430000A0000005B4275734661756C745D0A00AA
:102440005B486172644661756C745D0A000000004F
:10245000000000000000000000000000000000007C
:10246000000000000000000000000000000000006C
:10247000000000000000000000000000000000005C
:10248000000000000000000000000000000000004C
:10249000000000000000000000000000000000003C
:1024A000000000000000000000000000000000002C
:1024B0004300504F534958002E0000202020202078
:1024C00020202020282828282820202020202020E4
:1024D00020202020202020202020208810101010D4
:1024E0001010101010101010101010040404040428
:1024F0000404040404101010101010104141414154
:10250000414101010101010101010101010101013B
:10251000010101010101101010101010424242424D
:10252000424202020202020202020202020202020B
:10253000020202020202101010102000000000002F
:10254000000000000000000000000000000000008B
:10255000000000000000000000000000000000007B
:10256000000000000000000000000000000000006B
:10257000000000000000000000000000000000005B
:10258000000000000000000000000000000000004B
:10259000000000000000000000000000000000003B
:1025A000000000000000000000000000000000002B
:1025B0000000000000000000000000232D302B2050
:1025C00000686C4C00656667454647003031323321
:1025D000343536373839414243444546003031328C
:0E25E00033343536373839616263646566001E
:1025F000785634120024F4000C0000200000000083
:1026000070240008902400085024000800000000F6
:1026100000000000000000000000000000000000BA
:1026200000000000000000000000000000000000AA
:10263000000000000000000000000000000000009A
:10264000000000000000000000000000000000008A
:102650000000000000000000000000004300000037
:10266000000000000000000000000000000000006A
:102670000000000000000000000000004300000017
:10268000000000000000000000000000000000004A
:1026900000000000000000000000000043000000F7
:1026A000000000000000000000000000000000002A
:1026B00000000000000000000000000043000000D7
:1026C000000000000000000000000000000000000A
:1026D00000000000000000000000000043000000B7
:1026E00000000000000000000000000000000000EA
:1026F0000000000000000000000000004300000097
:1027000000000000000000000000000000000000C9
:102710000000000000000000000000004300000076
:1027200000000000000000000000000000000000A9
:10273000000000000000000000000000AD0E0008D6
:10274000A10D000800000000BA240008B824000809
:10275000C0250008C0250008C0250008C0250008C5
:10276000C0250008C0250008C0250008C0250008B5
:10277000C0250008FFFFFFFFFFFFFFFFFFFFFFFF78
:10278000FFFF0000010041534349490000000000E1
:102790000000000000000000000000000000000039
:1027A00000000000000041534349490000000000C0
:1027B0000000000000000000000000000000000019
:0C27C00000000000000000003254769879
:04000005080002A548
:00000001FF
