:020000040800F2
:1000000000000220AD030008DB010008C701000862
:10001000C3010008AF0100089B01000800000000B8
:100020000000000000000000000000009701000830
:1000300093010008000000008F0100088D010008F6
:100040008901000889010008890100088901000868
:100050008901000889010008890100088901000858
:100060008901000889010008890100088901000848
:100070008901000889010008890100088901000838
:100080008901000889010008890100088901000828
:100090008901000889010008890100088901000818
:1000A0008901000889010008890100088901000808
:1000B00089010008890100088901000889010008F8
:1000C00089010008890100088901000889010008E8
:1000D00089010008890100088901000889010008D8
:1000E00089010008890100088901000889010008C8
:1000F00089010008890100088901000889010008B8
:1001000089010008890100088901000889010008A7
:100110008901000889010008890100088901000897
:100120008901000889010008890100088901000887
:100130008901000889010008890100088901000877
:100140008901000889010008890100088901000867
:100150008901000889010008890100088901000857
:100160008901000889010008890100088901000847
:1001700089010008890100088901000800000000C9
:10018000890100088901000800BEFEE7704700BE33
:10019000FEE700BEFEE700BEFEE71EF0040F0CBF48
:1001A000EFF30880EFF309807146824A10471EF092
:1001B000040F0CBFEFF30880EFF3098071467E4A0D
:1001C000104700BEFEE71EF0040F0CBFEFF30880DF
:1001D000EFF309807146794A104700BEFEE780B50B
:1001E00082B004468846084B5E6B9F6B9D6A074849
:1001F00000F06AFCCDF800803B4632462946204696
:1002000000F07AFC00BEFEE700ED00E0682B00087D
:1002100080B582B004468846084B5E6B9F6B9D6A32
:10022000074800F051FCCDF800803B463246294695
:10023000204600F061FC00BEFEE700BF00ED00E0DC
:10024000782B00082DE9F04182B004468846134B14
:100250005E6B9F6B9D6A1B6B13F0020F03D00F4BFD
:10026000DB6A002B0CDB0E4800F02EFCCDF8008082
:100270003B4632462946204600F03EFC00BEFEE7E3
:100280004BF6AB6100F0A0FB0028ECD0034B4FF025
:100290000042DA6202B0BDE8F08100BF00ED00E08C
:1002A000842B000800B583B000F05CFA304B314A73
:1002B0001360314A1360314900E02146304B9942C6
:1002C0000BD20A684B6801F10C0488689842F4D993
:1002D0001168196004330432F8E7264B1A68294B79
:1002E0009A4200D0FEE7244B1A68274B9A42F9D174
:1002F0001F4B264A1360264A1360264B05E0002058
:10030000106004329342FAD80B46234A934204D237
:10031000194651F8082B5B68F4E71C4B1B6813B9AE
:100320001B4B1B6803B1FEE700F018FA694601A8F1
:1003300000F05CFC194C1A4BE41AA4100025AC42E6
:100340000ADC184C184BE41AA4100025AC4209DC56
:100350000099019800F0C0FA114B53F825309847E6
:100360000135ECE7104B53F8253098470135EDE7A0
:10037000BABADECA00000020D8010020C00300087D
:10038000D80300087856341232547698DC010020E5
:10039000C0030020D8030008E8030008E8030008B1
:1003A000E8030008E8030008E803000808B5FFF7C1
:1003B00079FF0000DF010008110200084502000873
:1003C000442D000800000020DC010020442D00081E
:1003D0000000001000000010DC010020C403002019
:0803E0000000001000000010F5
:1004000010B5474B1B78052B18D8DFE803F003180D
:100410002E44596E434C206801F032F93EA3D3E9D3
:10042000002300F0CFFF01F033FA20604FF07E513F
:1004300001F03EFD10B13A4B01221A7010BD394C4B
:10044000606801F01DF934A3D3E9002300F0BAFF7E
:1004500001F01EFA60604FF07E5101F029FD002886
:10046000ECD02F4B02221A70E8E72E4CA06801F066
:1004700007F929A3D3E9002300F0A4FF01F008FA4B
:10048000A0604FF07E5101F013FD0028D6D0244B20
:1004900003221A70D2E7234C206801F0F1F81EA362
:1004A000D3E9002300F08CFF01F0F2F92060002175
:1004B00001F0F4FC0028C1D0194B04221A70BDE7EA
:1004C000184C606801F0DCF813A3D3E9002300F0B6
:1004D00077FF01F0DDF96060002101F0DFFC00280A
:1004E000ACD00F4B05221A70A8E70E4CA06801F0A3
:1004F000C7F809A3D3E9002300F062FF01F0C8F9AF
:10050000A060002101F0CAFC002897D0044B002213
:100510001A7093E7AFF300802D431CEBE2361A3FCD
:100520006402002058020020012809D020B10228CE
:1005300004D04FF0FF3070470E2070470F207047F7
:100540000C207047494B1A6802F400221A601A689E
:1005500042F001021A60454B1B6813F0020FFAD0FB
:10056000424A936823F003039360404B9B6813F067
:100570000C0FFAD13D4A136843F4803313603B4BB0
:100580001B6813F4003FFAD0384B9A6822F4F81233
:1005900042F400229A609A6822F460429A609A6853
:1005A00022F4E0529A609A6822F0F0029A609A6807
:1005B00022F0030242F001029A602C4B9B6803F088
:1005C0000C03042BF9D1294B1A6802F001021A60BE
:1005D0005A6842F480025A605A6822F03F0242F0A0
:1005E00008025A605A6822F4FF4222F0400242F4A4
:1005F000A8425A605A6822F440325A605A6822F07F
:10060000706242F0E0625A601A6842F080721A60CA
:10061000164B1B6813F0007FFAD0144B9A6822F433
:10062000604242F400429A609A6822F4E05242F436
:10063000A0529A609A6822F0F0029A600C490A6807
:1006400022F00F0242F005020A600A6842F4E062FA
:100650000A609A6822F0030242F002029A60034B99
:100660009B6803F00C03082BF9D170470038024057
:10067000003C024008B5FFF765FF08BD224B9B68B0
:1006800003F00C03042B11D0082B13D0002B37D10F
:100690001E4B1F4A1A601C4B9B68C3F303131D4A71
:1006A000D15C1A4A1368CB4013607047174B1A4A43
:1006B0001A60F0E7144B5A685B6803F03F0312F4CA
:1006C000800F13D0144AB2FBF3F20F4B5B68C3F3F5
:1006D000881303FB02F30C4A5268C2F30142013251
:1006E0005200B3FBF2F3094A1360D4E7084AB2FBA5
:1006F000F3F2054B5B68C3F3881303FB02F3EAE7ED
:10070000024B034A1A60C6E700380240040000208A
:100710000024F400382A000800127A000C4B1A68F2
:1007200042F001021A60002199601A6822F0847276
:1007300022F480321A60074A5A601A6822F4802232
:100740001A60D960044B4FF000629A60704700BF96
:10075000003802401030002400ED00E008B5FFF73B
:100760008DFF08BD08B5FFF7D9FF024A024B9A601A
:1007700008BD00BF0000000800ED00E02DE9F043D7
:1007800085B004460F4643560BB10E461EE00425C5
:1007900028462146ABBE0446384605B0BDE8F08386
:1007A00014F9011B04AA1A4402F8101C0133AB42CD
:1007B000F6D304AA1344002203F8102C4FF00408C7
:1007C000E94640464946ABBE8046761B002EE3D044
:1007D0003546102E28BF10250023E8E708B5FFF79F
:1007E000CDFF08BD2DE9F04184B0234F01970326CA
:1007F000039600230293012401AD20462946ABBE97
:1008000080461E4BC3F80080019703960423029391
:1008100020462946ABBE8046194BC3F8008001979D
:1008200003960823029320462946ABBE0446154B87
:100830001C60B4F1FF3F03D1114B1A68114B1A60D1
:100840000023132B10DD104B0C4A12681A60002293
:100850005A600B4909689960DA600A4909681961A8
:100860005A6104B0BDE8F081074A4FF0FF3142F809
:1008700033100133E5E700BF642B000808030020B4
:100880000C030020040300201003002010B50C46C8
:1008900001460E4B53F8240001F058F90C4B53F865
:1008A000241001F04BF800F0EBFE0022094B00F0A1
:1008B00089FD00F0FDFC00F0C3FFFF2803DC0028E9
:1008C00002DA002000E0FF20C0B210BDE8020020E4
:1008D000F40200200000E03F00B583B0FFF7CAFE3D
:1008E000324B334A1A604FF0864159609A60314B5F
:1008F00000221A605A609A602F490B6B43F008037C
:100900000B632E4B196841F080511960196841F052
:1009100080611960196841F080711960196841F0AF
:1009200080411960264900230B704B708B7025495C
:100930000A604A608A601E461D460024022C1DD8AB
:100940002046FFF7F1FD01901D4B1B5DAB420BD91B
:10095000019A01239340194A51690B4353610134B1
:10096000E4B2EBE70026E8E7019A012303FA02F27A
:1009700012494B6923EA02034B61F0E76B1CDDB2BD
:10098000B6F57A7F01D20136D7E7FFF739FD0024AB
:10099000022CE7D821460B4B53F82400FFF776FFD3
:1009A000074B18550134E4B2F2E700BFE80200201B
:1009B00000007F43F402002000380240000C024097
:1009C000B00300205802002038B583691B888B4291
:1009D0006FD1044603684568013B302B6BD8DFE8D4
:1009E00003F046211C1C5E30332D19196A191919A0
:1009F00019193619246A19276A396A6A6A6A6A6A89
:100A00006A6A6A6A6A6A6A6A6A6A6A6A6A6A6A6A46
:100A10006A1919004FF0FF330360A3690233A36121
:100A2000012038BD00230360F7E700230360F4E7EB
:100A300000232B606B60AB60EB60EEE7002303608C
:100A4000EBE7AB680360E8E700230360E5E700231A
:100A50000360E2E7BFF34F8F1849CA6802F4E0620F
:100A6000174B1343CB60BFF34F8F00BFFDE7154912
:100A7000286800F039FA70B96B6813B90123236054
:100A8000CBE7042B02D102232360C6E7082B02D157
:100A900003232360C1E74FF0FF332360BDE72B68DA
:100AA000023B012B02D800230360B6E7AB6803606A
:100AB000B3E70020B5E70020B3E700BF00ED00E09A
:100AC0000400FA05642B00080FB400B583B004AB32
:100AD00053F8042B01938021064801F035FA0028D1
:100AE00003DD01460348FFF779FE03B05DF804EB30
:100AF00004B0704768020020F8B504460D4617465A
:100B00001E462748FFF7E0FF21682648FFF7DCFF75
:100B100061682548FFF7D8FFA1682448FFF7D4FF94
:100B2000E1682348FFF7D0FF21692248FFF7CCFF97
:100B300061692148FFF7C8FFA1692048FFF7C4FF9A
:100B4000E1691F48FFF7C0FF1E48FFF7BDFF2946B8
:100B50001D48FFF7B9FF1D4CE16A1D48FFF7B4FFC0
:100B6000216B1C48FFF7B0FFE16B1B48FFF7ACFFA0
:100B700015F0800F0AD115F4004F0CD11748FFF77C
:100B8000A3FF06991648FFF79FFFF8BD39461548A1
:100B9000FFF79AFFEFE731461348FFF795FFEDE7C0
:100BA000482A0008582A0008682A0008782A0008FD
:100BB000882A0008982A0008A82A0008B82A0008ED
:100BC000C82A0008D82A0008E42A000800ED00E03E
:100BD000F42A0008042B0008142B0008442B0008FA
:100BE0004C2B0008242B0008342B00082DE9F04F73
:100BF00083B083468A462F4B00934F2301931524DD
:100C00006D4620462946ABBE0446002C4AD1A1467B
:100C1000284B002283F84F20009E2746A04696F9D5
:100C2000005075B9002C3ED0234B002243F82420FD
:100C3000CBF80040CAF80030FFF7D4FD03B0BDE8A0
:100C4000F08FB8F1000F18D100F092F8284490F915
:100C50000130002B0FDB092D0DD0082CE2DC222DFA
:100C600001D0272D01D101362F46134B43F82460C4
:100C700001344FF001080136D1E737B1AF42FAD164
:100C8000002333704F46C846F5E700F071F828445A
:100C900090F90130002B01DB092DECD100233370DA
:100CA000B846E8E70024034B00221A70024A13609A
:100CB0000134B9E7E00100203002002008B5034606
:100CC0000C4A12685AB10B4A1068033323F003032D
:100CD0000344094A934206D8064A136008BD054AF0
:100CE00006491160EFE700F00BF80C2303604FF0AA
:100CF000FF30F3E70003002000FC0120C4030020C4
:100D0000014B1868704700BF08000020B2B110B551
:100D10000B491046144600F0E7F808B9094810BD21
:100D20000849204600F0E0F80028F7D020460649A0
:100D300000F0DAF80028F1D0002010BD014870471B
:100D4000F82B0008F42B0008642A0008044B054A1D
:100D50001B681B6A002B08BF134693F828017047D5
:100D6000080000206C000020D0F8EC00704700BFA5
:100D7000044B054A1B681B6A002B08BF1346D3F8B7
:100D8000EC007047080000206C000020024B0A466F
:100D900001461868FFF7BABF0800002030B4064CBF
:100DA000064D2468246A002C08BF2C46D4F8E44081
:100DB000A44630BC604700BF080000206C00002043
:100DC00082B049B15AB16BB113780B601278101C24
:100DD00018BF012002B0704701A9002AF3D11046C4
:100DE00002B070476FF00100F4E700BFF8B5CD1C0A
:100DF00025F0030508350C2D38BF0C25002D0646BF
:100E00003ADBA94238D82A4F00F0F8F93A6852B1D3
:100E100013685B1B04D433E023685B1B25D5224693
:100E20005468002CF8D1796800293BD02946304617
:100E300000F040F8431C2AD0C41C24F00304A04254
:100E400005D0211A304600F035F801301FD025605A
:100E5000304600F0D5F904F10B0020F00700231D07
:100E6000C31A01D05A42E250F8BD0B2B0BD8944262
:100E700015D063685360EBE70C2333600020F8BDA6
:100E80000B2B0BD9144623601C442560E0E70C2390
:100E90003360304600F0B4F90020F8BD54683C607F
:100EA0001446D5E7304600F005F87860BEE700BF8D
:100EB000B403002038B5074C0023054608462360DC
:100EC000FFF7FCFE431C00D038BD2368002BFBD08D
:100ED0002B6038BDBC0300200000000000000000B3
:100EE000A2EB0300704700BF02780B78012A28BFED
:100EF0009A42F5D16DE9044540EA0104CDE9026763
:100F00006FF0000C4FEA447212B380EA010414F04F
:100F1000070F6AD100F0070420F0070004F0030572
:100F200021F007014FEAC505F0E8042314F0040F8F
:100F3000F1E804670CFA05F462EA040266EA0406C2
:100F40000AD063EA0403624667EA0407664603E0E0
:100F5000F0E80423F1E8046782FA4CF582EA06041B
:100F6000A4FA8CF46CBB83FA4CF583EA0705A5FA66
:100F70008CF595B950E9022351E9026782FA4CF5E4
:100F800082EA0604A4FA8CF483FA4CF583EA070596
:100F9000A5FA8CF52543DBD09CB92DBAB5FA85F4BA
:100FA00024F0070427FA04F1DDE9026723FA04F3C9
:100FB00003F0FF0001F0FF01FDE80445A0EB010094
:100FC000704724BAB4FA84F424F0070426FA04F132
:100FD000DDE9026722FA04F202F0FF0001F0FF01EE
:100FE000FDE80445A0EB0100704714F0030F3CD16D
:100FF00010F0030428D150F8082B51F8083B82FA6E
:101000004CF582EA0305A5FA8CF55DB950F8042C7D
:1010100051F8043C82FA4CF582EA0305A5FA8CF5F6
:10102000002DE8D02DBAB5FA85F424F0070423FA90
:1010300004F122FA04F202F0FF0001F0FF01FDE8E2
:101040000445A0EB010070474FEAC40420F0030000
:1010500050F8082B21F0030151F8083B0CFA04F476
:1010600062EA040263EA0403C9E710F003041AD039
:10107000A1EB040120F00300E40750F8042B06D094
:101080000FD28B785FFAA2F4E41A06D12BB1CB7899
:101090005FFAB2F4E41A00D11BB920465DF8104B98
:1010A000704701F1040150F8042BCC0721F0030133
:1010B00051F8043B48D824D222F07F4482FA4CF500
:1010C00094EA1325A5FA8CF50AD165B951F8043BC9
:1010D00084EA0204B4EB036F0ED150F8042BEBE763
:1010E0004FEA132355E035F07F454DD10878FDE8F0
:1010F0000445C0F1000070474FEA126203F0FF039D
:1011000047E002EA1C4482FA4CF594EA1345A5FA3A
:101110008CF50AD165B951F8043B84EA0204B4EBBA
:10112000034F0CD150F8042BEBE74FEA134330E0A8
:1011300015EA1C4528D10B884FEA124229E04FEAF4
:10114000124203EA1C4324E002F0FF0482FA4CF549
:1011500094EA1365A5FA8CF50AD165B951F8043BF8
:1011600084EA0204B4EB032F09D150F8042BEBE717
:101170004FEA13630DE015F0FF0F05D10B684FEA3E
:10118000122223F07F4304E04FF00000FDE8044505
:10119000704712BA1BBA82FA4CF482EA0304A4FA2A
:1011A0008CF5B5FA85F402FA04F203FA04F34FEA77
:1011B0001260FDE80445A0EB1360704730B4064CA4
:1011C000064D2468246A002C08BF2C46D4F8E04061
:1011D000A44630BC604700BF080000206C0000201F
:1011E00021B1FF2A04D80A700120704708467047D1
:1011F0008A2303604FF0FF30704700BF704700BF85
:10120000704700BF79B338B551F8043C0C1F002B70
:10121000B8BFE4180546FFF7F1FF234B1A682AB15F
:10122000A2420DD921686018824230D062602846FF
:101230001C60BDE83840FFF7E3BFA34203D81A465D
:101240005368002BF9D111685018A04213D00BD865
:1012500021686018834220D0636054602846BDE84E
:101260003840FFF7CDBF70470C232B602846BDE800
:101270003840FFF7C5BF2068014450188342116011
:10128000ECD1D3E90003014453601160E6E7D2E9F1
:101290000002014462602160C9E7D3E90003014410
:1012A000636021605460D9E7B403002000000000AF
:1012B000C1F30A522DE9F843A2F2FF36132E0B4672
:1012C0000D460446884607461DDC002E3DDB384AA5
:1012D00042FA06F901EA0902024319D032A3D3E91E
:1012E000002300F06FF80022002300F09FFAD0B333
:1012F000002D04DA4FF4801343FA06F6B04428EACE
:10130000090500272FE0332E06DDB6F5806F2FD0BC
:1013100019462046BDE8F883A2F213424FF0FF3988
:1013200029FA02F919EA000FF2D01FA3D3E900232A
:1013300000F048F80022002300F078FA98B1002D60
:1013400024DB27EA090745460DE017A3D3E900236C
:1013500000F038F80022002300F068FA18B1002DE0
:101360000BDB00273D463C4629462046BDE8F88376
:10137000024600F027F80446CBE725F000430D4A6B
:101380001F43002F18BF15460027ECE7142E08D086
:101390000123C6F1340603FA06F6371928BF98442C
:1013A000CFE705F10108CCE79C7500883CE4377E67
:1013B000FFFF0F000000F0BF81F0004102E000BF1E
:1013C00083F0004330B54FEA41044FEA430594EA05
:1013D000050F08BF90EA020F1FBF54EA000C55EA40
:1013E000020C7FEA645C7FEA655C00F0E2804FEA11
:1013F0005454D4EB5555B8BF6D420CDD2C4480EAF3
:10140000020281EA030382EA000083EA010180EA22
:10141000020281EA0303362D88BF30BD11F0004F70
:101420004FEA01314FF4801C4CEA113102D04042A6
:1014300061EB410113F0004F4FEA03334CEA1333E1
:1014400002D0524263EB430394EA050F00F0A780F9
:10145000A4F10104D5F1200E0DDB02FA0EFC22FAF4
:1014600005F2801841F1000103FA0EF2801843FAE8
:1014700005F359410EE0A5F120050EF1200E012AD9
:1014800003FA0EFC28BF4CF0020C43FA05F3C01817
:1014900051EBE37101F0004507D54FF0000EDCF190
:1014A000000C7EEB00006EEB0101B1F5801F1BD339
:1014B000B1F5001F0CD349085FEA30004FEA3C0C3D
:1014C00004F101044FEA445212F5800F80F09A8033
:1014D000BCF1004F08BF5FEA500C50F1000041EB37
:1014E000045141EA050130BD5FEA4C0C404141EB3B
:1014F000010111F4801FA4F10104E9D191F0000F62
:1015000004BF01460020B1FA81F308BF2033A3F1E4
:101510000B03B3F120020CDA0C3208DD02F1140CDB
:10152000C2F10C0201FA0CF021FA02F10CE002F116
:101530001402D8BFC2F1200C01FA02F120FA0CFC0F
:10154000DCBF41EA0C019040E41AA2BF01EB045158
:10155000294330BD6FEA04041F3C1CDA0C340EDC56
:1015600004F11404C4F1200220FA04F001FA02F399
:1015700040EA030021FA04F345EA030130BDC4F157
:101580000C04C4F1200220FA02F001FA04F340EA4C
:101590000300294630BD21FA04F0294630BD94F0FD
:1015A000000F83F4801306BF81F480110134013DE4
:1015B0004EE77FEA645C18BF7FEA655C29D094EA55
:1015C000050F08BF90EA020F05D054EA000C04BFD3
:1015D0001946104630BD91EA030F1EBF00210020BE
:1015E00030BD5FEA545C05D14000494128BF41F05D
:1015F000004130BD14F580043CBF01F5801130BDC1
:1016000001F0004545F0FE4141F470014FF000004B
:1016100030BD7FEA645C1ABF194610467FEA655CFC
:101620001CBF0B46024650EA013406BF52EA03359E
:1016300091EA030F41F4002130BD00BF90F0000F8C
:1016400004BF0021704730B54FF4806404F13204C8
:101650004FF000054FF0000150E700BF90F0000F81
:1016600004BF0021704730B54FF4806404F13204A8
:1016700010F0004548BF40424FF000013EE700BF78
:1016800042004FEAE2014FEA31014FEA02701FBF08
:1016900012F07F4393F07F4F81F06051704732F03A
:1016A0007F4208BF704793F07F4F04BF41F4002191
:1016B000704730B54FF4607401F0004521F00041EF
:1016C0001CE700BF50EA010208BF704730B54FF079
:1016D00000050AE050EA010208BF704730B511F07A
:1016E000004502D5404261EB41014FF4806404F1B2
:1016F00032045FEA915C3FF4D8AE4FF003025FEA38
:10170000DC0C18BF03325FEADC0C18BF033202EBBB
:10171000DC02C2F1200300FA03FC20FA02F001FA15
:1017200003FE40EA0E0021FA02F11444BDE600BFB8
:101730004FF0FF3C06E000BF4FF0010C02E000BF9D
:101740004FF0010C4DF804CD4FEA410C7FEA6C5C80
:101750004FEA430C18BF7FEA6C5C1BD001B050EA23
:10176000410C0CBF52EA430C91EA030F02BF90EA0E
:10177000020F0020704710F1000F91EA030F58BFCD
:10178000994208BF90422CBFD8176FEAE37040F02F
:10179000010070474FEA410C7FEA6C5C02D150EACD
:1017A000013C07D14FEA430C7FEA6C5CD6D152EA88
:1017B000033CD3D05DF8040B704700BF844610464D
:1017C00062468C461946634600E000BF01B5FFF74C
:1017D000B7FF002848BF10F1000F01BD4DF808ED1C
:1017E000FFF7F4FF0CBF012000205DF808FB00BFED
:1017F0004DF808EDFFF7EAFF34BF012000205DF847
:1018000008FB00BF4DF808EDFFF7E0FF94BF012093
:1018100000205DF808FB00BF4DF808EDFFF7CEFF94
:1018200094BF012000205DF808FB00BF4DF808EDD3
:10183000FFF7C4FF34BF012000205DF808FB00BFA4
:101840004FEA410212F5001215D211D56FF47873E8
:10185000B3EB625212D94FEAC12343F0004343EA8B
:10186000505311F0004F23FA02F018BF4042704766
:101870004FF00000704750EA013005D111F00040F0
:1018800008BF6FF0004070474FF00000704700BF86
:101890004FEA4102B2F1E04324BFB3F5001CDCF192
:1018A000FE5C0DD901F0004C4FEAC0024CEA5070CA
:1018B000B2F1004F40EB830008BF20F001007047F9
:1018C00011F0804F21D113F13872BCBF01F00040FC
:1018D000704741F480114FEA5252C2F11802C2F12E
:1018E000200C10FA0CF320FA02F018BF40F00100AF
:1018F0004FEAC1234FEAD32303FA0CFC40EA0C0061
:1019000023FA02F34FEA4303CCE77FEA625307D19D
:1019100050EA01331EBF4FF0FE4040F440007047D4
:1019200001F0004040F0FE4040F40000704700BF6E
:1019300080F0004002E000BF81F0004142001FBF84
:101940005FEA410392EA030F7FEA226C7FEA236C8D
:101950006AD04FEA1262D2EB1363C1BFD218414082
:1019600048404140B8BF5B42192B88BF704710F018
:10197000004F40F4000020F07F4018BF404211F0BB
:10198000004F41F4000121F07F4118BF494292EA23
:10199000030F3FD0A2F1010241FA03FC10EB0C004F
:1019A000C3F1200301FA03F100F0004302D54942DC
:1019B00060EB4000B0F5000F13D3B0F1807F06D389
:1019C00040084FEA310102F10102FE2A51D2B1F181
:1019D000004F40EBC25008BF20F0010040EA030076
:1019E0007047490040EB000010F4000FA2F1010223
:1019F000EDD1B0FA80FCACF1080CB2EB0C0200FAAD
:101A00000CF0AABF00EBC25052421843BCBFD040FA
:101A10001843704792F0000F81F4000106BF80F474
:101A200000000132013BB5E74FEA41037FEA226C37
:101A300018BF7FEA236C21D092EA030F04D092F002
:101A4000000F08BF0846704790EA010F1CBF002036
:101A5000704712F07F4F04D1400028BF40F0004093
:101A6000704712F100723CBF00F50000704700F0B3
:101A7000004343F0FE4040F4000070477FEA2262DA
:101A800016BF08467FEA23630146420206BF5FEAAB
:101A9000412390EA010F40F4800070474FF00003AB
:101AA00004E000BF10F0004348BF40425FEA000C72
:101AB00008BF704743F0964301464FF000001CE01A
:101AC00050EA010208BF70474FF000030AE000BF70
:101AD00050EA010208BF704711F0004302D54042AE
:101AE00061EB41015FEA010C02BF84460146002020
:101AF00043F0B64308BFA3F18053A3F50003BCFA3B
:101B00008CF2083AA3EBC25310DB01FA02FC6344E7
:101B100000FA02FCC2F12002BCF1004F20FA02F2EE
:101B200043EB020008BF20F00100704702F12002E1
:101B300001FA02FCC2F1200250EA4C0021FA02F242
:101B400043EB020008BF20EADC7070474FF0FF0C47
:101B50001CEAD0521EBF1CEAD15392EA0C0F93EA42
:101B60000C0F6FD01A4480EA010C400218BF5FEAE4
:101B700041211ED04FF0006343EA501043EA511157
:101B8000A0FB01310CF00040B1F5000F3EBF490051
:101B900041EAD3715B0040EA010062F17F02FD2A55
:101BA0001DD8B3F1004F40EBC25008BF20F0010038
:101BB000704790F0000F0CF0004C08BF49024CEA4F
:101BC000502040EA51207F3AC2BFD2F1FF0340EAE1
:101BD000C250704740F400004FF00003013A5DDC52
:101BE00012F1190FDCBF00F000407047C2F1000293
:101BF000410021FA02F1C2F1200200FA02FC5FEA80
:101C0000310040F1000053EA4C0308BF20EADC70C9
:101C1000704792F0000F00F0004C02BF400010F43B
:101C2000000F013AF9D040EA0C0093F0000F01F0E8
:101C3000004C02BF490011F4000F013BF9D041EA0A
:101C40000C018FE70CEAD15392EA0C0F18BF93EA0C
:101C50000C0F0AD030F0004C18BF31F0004CD8D136
:101C600080EA010000F00040704790F0000F17BFBD
:101C700090F0004F084691F0000F91F0004F14D003
:101C800092EA0C0F01D142020FD193EA0C0F03D15B
:101C90004B0218BF084608D180EA010000F000405E
:101CA00040F0FE4040F40000704740F0FE4040F439
:101CB000400070474FF0FF0C1CEAD0521EBF1CEAD8
:101CC000D15392EA0C0F93EA0C0F69D0A2EB0302F6
:101CD00080EA010C49024FEA402037D04FF0805390
:101CE00043EA111143EA10130CF000408B4238BF55
:101CF0005B0042F17D024FF4000C8B4224BF5B1A63
:101D000040EA0C00B3EB510F24BFA3EB510340EAB0
:101D10005C00B3EB910F24BFA3EB910340EA9C005E
:101D2000B3EBD10F24BFA3EBD10340EADC001B01CE
:101D300018BF5FEA1C1CE0D1FD2A3FF650AF8B4272
:101D400040EBC25008BF20F0010070470CF0004C7F
:101D50004CEA50207F32C2BFD2F1FF0340EAC250AA
:101D6000704740F400004FF00003013A37E792F06B
:101D7000000F00F0004C02BF400010F4000F013AC9
:101D8000F9D040EA0C0093F0000F01F0004C02BFC4
:101D9000490011F4000F013BF9D041EA0C0195E72D
:101DA0000CEAD15392EA0C0F08D142027FF47DAFC6
:101DB00093EA0C0F7FF470AF084676E793EA0C0FB6
:101DC00004D14B023FF44CAF08466EE730F0004CB4
:101DD00018BF31F0004CCAD130F000427FF45CAF44
:101DE00031F000437FF43CAF5FE700BF4FF0FF3CB2
:101DF00006E000BF4FF0010C02E000BF4FF0010C05
:101E00004DF804CD4FEA40024FEA41037FEA226CCD
:101E100018BF7FEA236C11D001B052EA530C18BFEF
:101E200090EA010F58BFB2EB030088BFC81738BF54
:101E30006FEAE17018BF40F0010070477FEA226C42
:101E400002D15FEA402C05D17FEA236CE4D15FEA3E
:101E5000412CE1D05DF8040B704700BF8446084672
:101E60006146FFE70FB5FFF7C9FF002848BF10F133
:101E7000000F0FBD4DF808EDFFF7F4FF0CBF012078
:101E800000205DF808FB00BF4DF808EDFFF7EAFF02
:101E900034BF012000205DF808FB00BF4DF808EDBD
:101EA000FFF7E0FF94BF012000205DF808FB00BFB2
:101EB0004DF808EDFFF7D2FF94BF012000205DF838
:101EC00008FB00BF4DF808EDFFF7C8FF34BF012045
:101ED00000205DF808FB00BF70B5141E9AB00546DF
:101EE0002CDB1A464FF4027300910491ADF80C30CC
:101EF00013D0013C4FF6FF761E9B02946946059471
:101F0000ADF80E6000F00AF9421C01DA8B232B6059
:101F1000009B00221A701AB070BD1E9B02944FF6EF
:101F2000FF7669460594ADF80E6000F0F7F8431CA3
:101F300001DB1AB070BD8B232B60FAE78B230360A3
:101F40004FF0FF30F5E700BF10B582B0054C0093AD
:101F5000246813460A4601462046FFF7BDFF02B03B
:101F600010BD00BF080000202DE9F0478E681D4617
:101F7000AE420C460B68174627D88046888910F475
:101F8000906F31D0D1E9041606EB4606A3EB0109A8
:101F900006EBD6766B1C76104B44B342324684BFB8
:101FA0001E463246430521D511464046FEF71EFF28
:101FB000824678B34A46216900F012FCA38923F4D3
:101FC000906343F08003A38115E02E4618462A460D
:101FD000394600F09FFCA2682368961B2B44A6603C
:101FE00023600020BDE8F0873546EFE7404600F06B
:101FF000F5FC824650B1A6EB09020AEB09036661C3
:10200000C4F810A02360A2602E46DFE72169404695
:10201000FFF7F8F80C23C8F80030A38943F0400319
:10202000A3814FF0FF30DDE72DE9F04F936883B0D7
:102030009046002B6CD017688D6882460C46086865
:10204000083742E0A38913F4906F2DD0D4E904152A
:1020500005EB4505A0EB010B05EBD575701C6D106C
:102060005844A8422A4684BF05462A465B0536D511
:1020700011465046FEF7BAFE00283AD05A4621696A
:10208000019000F0ADFBA289019B22F4906242F026
:102090008002A281A5EB0B0203EB0B0065612361BB
:1020A0002060A2603546B3465A46494600F032FCED
:1020B000D8F80830A2682068551B58449E1BA560BC
:1020C0002060C8F808601EB3083757E90296AB468F
:1020D000002EF9D0AE42B5D23546B346E4E75046BD
:1020E00000F07CFC03460028D4D121695046FFF75C
:1020F00089F80C23CAF80030A389002243F040037A
:102100004FF0FF30A381C8E9012203B0BDE8F08F92
:102110000020C8F8040003B0BDE8F08F2DE9F04FAF
:1021200014468A899DB015068946CDE9020303D578
:102130000B69002B00F0128130238DF82A302378B0
:102140008F4E0021202209918DF829200127002B94
:1021500000F09280252B254603D118E0252B00F0B6
:10216000C38015F8013F002BF8D1B5EB040B00F04C
:10217000838022465B4649460298FFF7F5FE013010
:102180007AD0099B2A785B440993002A74D00023F3
:102190004FF0FF3201350493CDE906338DF853300B
:1021A0001A93059205E0049A07FA03F31343554680
:1021B0000493AA4605221AF8011B304600F0C0FA23
:1021C000D346831B0028EED1049BD90644BF2022AE
:1021D0008DF8532029781A0744BF2B228DF85320FD
:1021E0002A2953D0A1F13003092B00F2B180079ABC
:1021F00002E055460AF1010A9AF8001002EB820249
:1022000003EB4202A1F13003092BD346F1D905F1CA
:10221000020A07922E2945D05A4C0322204600F08C
:102220008FFA00285DD0001B049A402404FA00F0C5
:10223000024304920AF101049AF8001052488DF802
:102240002810062200F07CFA00285FD04F4B002BAC
:102250004FD003AB00934A464D4B029804A9AFF30D
:1022600000808046B8F1FF3F06D0099B43440993A4
:102270002378002B7FF46EAFB9F80C305B0654BFA7
:1022800009984FF0FF301DB0BDE8F08F039A116838
:1022900004320029039233DB079169782E2905F176
:1022A000020AB9D19BF801102A2939D1039B354C78
:1022B0001A680592002AB8BF4FF0FF320BF10200F6
:1022C000AEBF9BF802109BF80210059204330BF18D
:1022D000030A032283462046039300F031FA0028C4
:1022E000A1D15446DA46A7E7B5EB040B3FF44FAF54
:1022F0003FE7039B073323F0070308330393B4E757
:10230000494243F0020307910493C6E703AB0093ED
:102310004A461F4B029804A900F0CAF88046A1E77C
:10232000A1F1300000220928059201D912E0DA4615
:102330009AF8011002EB820200EB4202A1F1300098
:1023400009280AF1010BF2D90AF1020A059263E7A2
:10235000AB465FE7D3460AF1010A5DE74021FEF78D
:1023600045FDC9F80000C9F8100018B14023C9F8AC
:102370001430E1E6029A0C2313604FF0FF3082E73D
:10238000082D0008102D0008142D00080000000082
:10239000691F00082DE9F0470C4691460A698968D3
:1023A000DDF820808A42B8BF0A46C9F8002094F8B8
:1023B000431006461F4611B10132C9F800202368B8
:1023C00099065FD5D9F800200232C9F800202368A9
:1023D00013F0060F19461DD1E1688A1A002AD8BFEA
:1023E000194617DD04F1190A002505E0E368D9F85C
:1023F00000209B1AAB420CDD012352463946304681
:10240000C047013005F10105F0D14FF0FF30BDE8C4
:10241000F087216894F84330003318BF01238A06FF
:102420000AD5E1185A1C302081F84300224494F860
:10243000451082F84310023304F143023946304616
:10244000C0470130E1D02368D9F80050216903F07A
:102450000603042BD4E902201AD08A421FDD4FF074
:102460000009521A91441A34002501E04D4516D056
:102470000123224639463046C047013005F10105A7
:10248000F4D1C2E713F0060F0CD1D9F80020A3E76E
:10249000401B8A4220EAE079E3DC0028E3DC0020EC
:1024A000BDE8F08794F84330003318BF0123C3E739
:1024B0002DE9F0430C46097E85B06E2906460C9D39
:1024C0001746984604F1430C4AD00FD8632900F010
:1024D000FF8000F2BF8000294ED0582940F0E180F3
:1024E00084F845102268DFF844E212E0732900F016
:1024F000C6807AD86F2900F0DB80702940F0D18047
:10250000206840F0200222607823DFF824E284F87B
:1025100045302B68191D1B682960150602D450062A
:1025200048BF9BB2D10744BF42F020022260002B7B
:102530006DD1D4E9001284F84330002A21F0200341
:102540002360A2607EDB21F0240121601021002A9B
:1025500079D1654608294ED0ACEB050323610EE026
:102560002B6822686169181D286015061B6802D453
:10257000500600F1C7801960002365462361CDF83D
:1025800000803B4603AA21463046FFF703FF013097
:1025900020D02A46236939463046C047013019D039
:1025A0002268039BE068920719D5C21A002A16DD3B
:1025B00004F11909002504E0E068039BC21AAA424D
:1025C0000DDD01234A4639463046C047013005F14A
:1025D0000105F1D14FF0FF3005B0BDE8F08398421E
:1025E000B8BF184605B0BDE8F083752960D07829DA
:1025F00057D1226888E72368DB07ADD56268236975
:102600009A42A9DC302305F8013C013DA4E71021E2
:10261000002284F843206268A260002A2CDB206834
:1026200020F004002060002B91D06546B3FBF1F24E
:1026300001FB123013461EF8002005F8012D002B77
:10264000F4D187E710219EF8003084F8423004F17D
:1026500042057FE7642901D0692922D120682B68CF
:10266000010603F1040245D51B682A60002B4BDBF1
:10267000DFF8B8E00A21CEE7002BD6D1E3E72B68DC
:102680006268191D29601D680021284600F058F86D
:10269000002848D0401B60602061002384F843304C
:1026A0006DE7012384F84210236104F14205F4E749
:1026B00020682B6810F0800F03F1040213D01B6810
:1026C0002A606F290CBF08210A21DFF860E09FE72C
:1026D0002B681A68191D0123296084F842202361A0
:1026E00004F14205D9E7400653BF1B682A601B88E6
:1026F0002A60E6E7410653BF1B682A60B3F9003041
:102700002A60B3E7198037E76268A2602D21002AAA
:1027100084F84310C3F10003DFF810E04FF00A0122
:10272000BFF67EAF81E76068B6E700BF1C2D0008EA
:10273000302D000800000000000000000000000034
:1027400001F0FF01102A2BDB10F0070F08D010F862
:10275000013B013A8B422DD010F0070F42B3F6D166
:10276000F0B441EA012141EA014122F007047FF07F
:1027700000070023F0E80256083C85EA010586EAD6
:10278000010685FA47F5A3FA87F586FA47F6A5FA12
:1027900087F68EB9EED1F0BC01F0FF0102F007021E
:1027A00032B110F8013B013A83EA010313B1F8D1C9
:1027B0000020704701387047002D06BF35460338AA
:1027C000073815F0010F07D1013015F4807F02BFE3
:1027D000013015F4C03F0130F0BC0138704700BF34
:1027E000844641EA000313F003036DD1403A41D31C
:1027F00051F8043B40F8043B51F8043B40F8043BDB
:1028000051F8043B40F8043B51F8043B40F8043BCA
:1028100051F8043B40F8043B51F8043B40F8043BBA
:1028200051F8043B40F8043B51F8043B40F8043BAA
:1028300051F8043B40F8043B51F8043B40F8043B9A
:1028400051F8043B40F8043B51F8043B40F8043B8A
:1028500051F8043B40F8043B51F8043B40F8043B7A
:1028600051F8043B40F8043B51F8043B40F8043B6A
:10287000403ABDD2303211D351F8043B40F8043B0A
:1028800051F8043B40F8043B51F8043B40F8043B4A
:1028900051F8043B40F8043B103AEDD20C3205D31A
:1028A00051F8043B40F8043B043AF9D2043208D012
:1028B000D2071CBF11F8013B00F8013B01D30B8884
:1028C00003806046704700BF082A13D38B078DD062
:1028D00010F003038AD0C3F10403D21ADB071CBF34
:1028E00011F8013B00F8013B80D331F8023B20F89E
:1028F000023B7BE7043AD9D3013A11F8013B00F8D7
:10290000013BF9D20B7803704B7843708B7883705E
:10291000604670478842F0B40DD98B1883420AD9BB
:10292000841832B1224613F8014D02F8014D994244
:10293000F9D1F0BC70470F2A49D940EA01039B073F
:1029400047D1A2F110031B0901F1200707EB031780
:1029500001F1100400F1100554F8106C45F8106CEA
:1029600054F80C6C45F80C6C54F8086C45F8086C7D
:1029700054F8046C45F8046C1034BC4205F11005A1
:10298000EAD1013302F00F051B01032D1944034462
:1029900021D91F1F0E462C46043C56F804CB47F89D
:1029A00004CF032CF8D82C1F24F003040434234450
:1029B000214402F00302002ABBD0013B0A4411F873
:1029C000014B03F8014F9142F9D1F0BC7047034627
:1029D000F1E70346F1E72A46EDE700BFE1B1F8B5BC
:1029E0001446E2B106460D4600F01EF8A04202D39E
:1029F0002F463846F8BD21463046FEF7F7F9074620
:102A00000028F6D022462946FFF7EAFE304629463E
:102A1000FEF7F8FB3846F8BD1146FEF7E7B9FEF7BA
:102A2000F1FB2746E5E700BF51F8043C181F002BD7
:102A3000BCBF0B58C0187047000000000000000029
:102A40000102030406070809537461636B20667270
:102A5000616D653A0A000000205230203D2020259B
:102A60003038580A00000000205231203D20202537
:102A70003038580A00000000205232203D20202526
:102A80003038580A00000000205233203D20202515
:102A90003038580A0000000020523132203D2025F5
:102AA0003038580A00000000204C52203D202025DC
:102AB0003038580A00000000205043203D202025D7
:102AC0003038580A0000000020505352203D202585
:102AD0003038580A000000004653522F4641523AFF
:102AE0000A0000002043465352203D202025303864
:102AF000580A00002048465352203D2020253038F7
:102B0000580A00002044465352203D2020253038EA
:102B1000580A00002041465352203D2020253038DD
:102B2000580A0000204D4D464152203D20253038A6
:102B3000580A00002042464152203D2020253038CE
:102B4000580A00004D6973630A000000204C522FA0
:102B50004558435F52455455524E3D202530385814
:102B60000A0000003A7474005B5573616765466142
:102B7000756C745D0A0000005B4275734661756C8C
:102B8000745D0A005B486172644661756C745D0A2D
:102B90000000000000000000000000000000000035
:102BA0000000000000000000000000000000000025
:102BB0000000000000000000000000000000000015
:102BC0000000000000000000000000000000000005
:102BD00000000000000000000000000000000000F5
:102BE00000000000000000000000000000000000E5
:102BF0000000000043000000504F534958000000FF
:102C00002E00000000202020202020202020282826
:102C1000282828202020202020202020202020209C
:102C200020202020208810101010101010101010DC
:102C3000101010101004040404040404040404100C
:102C4000101010101010414141414141010101019A
:102C50000101010101010101010101010101010164
:102C60001010101010104242424242420202020270
:102C70000202020202020202020202020202020234
:102C800010101010200000000000000000000000E4
:102C90000000000000000000000000000000000034
:102CA0000000000000000000000000000000000024
:102CB0000000000000000000000000000000000014
:102CC0000000000000000000000000000000000004
:102CD00000000000000000000000000000000000F4
:102CE00000000000000000000000000000000000E4
:102CF00000000000000000000000000000000000D4
:102D00000000000000000000232D302B20000000F8
:102D1000686C4C00656667454647000030313233C9
:102D200034353637383941424344454600000000C7
:102D30003031323334353637383961626364656631
:042D4000000000008F
:102D4400785634120024F4000C0000200000000027
:102D5400D42B0008B42B0008942B000800000000BA
:102D6400000000000000000000000000000000005F
:102D7400000000000000000000000000000000004F
:102D8400000000000000000000000000000000003F
:102D9400000000000000000000000000000000002F
:102DA40000000000000000000000000043000000DC
:102DB400000000000000000000000000000000000F
:102DC40000000000000000000000000043000000BC
:102DD40000000000000000000000000000000000EF
:102DE400000000000000000000000000430000009C
:102DF40000000000000000000000000000000000CF
:102E0400000000000000000000000000430000007B
:102E140000000000000000000000000000000000AE
:102E2400000000000000000000000000430000005B
:102E3400000000000000000000000000000000008E
:102E4400000000000000000000000000430000003B
:102E5400000000000000000000000000000000006E
:102E6400000000000000000000000000430000001B
:102E7400000000000000000000000000000000004E
:102E8400000000000000000000000000E111000844
:102E9400C10D000800000000042C0008002C0008EC
:102EA400642A0008642A0008642A0008642A0008C6
:102EB400642A0008642A0008642A0008642A0008B6
:102EC400642A0008FFFFFFFFFFFFFFFFFFFFFFFF74
:102ED400FFFF000001004153434949000000000086
:102EE40000000000000000000000000000000000DE
:102EF4000000000000004153434949000000000065
:102F040000000000000000000000000000000000BD
:0C2F14000000000000000000325476981D
:04000005080002A548
:00000001FF
